{
  "contractName": "Identity",
  "abi": [
    {
      "constant": true,
      "inputs": [],
      "name": "creator",
      "outputs": [
        {
          "name": "",
          "type": "address"
        }
      ],
      "payable": false,
      "stateMutability": "view",
      "type": "function"
    },
    {
      "constant": true,
      "inputs": [
        {
          "name": "",
          "type": "address"
        },
        {
          "name": "",
          "type": "uint256"
        }
      ],
      "name": "publicKeyToIdentity",
      "outputs": [
        {
          "name": "",
          "type": "bytes32"
        }
      ],
      "payable": false,
      "stateMutability": "view",
      "type": "function"
    },
    {
      "constant": true,
      "inputs": [
        {
          "name": "",
          "type": "bytes32"
        },
        {
          "name": "",
          "type": "uint256"
        }
      ],
      "name": "identities",
      "outputs": [
        {
          "name": "accountAddress",
          "type": "address"
        },
        {
          "name": "valid",
          "type": "bool"
        }
      ],
      "payable": false,
      "stateMutability": "view",
      "type": "function"
    },
    {
      "constant": true,
      "inputs": [
        {
          "name": "",
          "type": "bytes32"
        }
      ],
      "name": "email",
      "outputs": [
        {
          "name": "",
          "type": "string"
        }
      ],
      "payable": false,
      "stateMutability": "view",
      "type": "function"
    },
    {
      "constant": true,
      "inputs": [
        {
          "name": "",
          "type": "bytes32"
        }
      ],
      "name": "PGPKey",
      "outputs": [
        {
          "name": "",
          "type": "string"
        }
      ],
      "payable": false,
      "stateMutability": "view",
      "type": "function"
    },
    {
      "constant": true,
      "inputs": [
        {
          "name": "",
          "type": "bytes32"
        },
        {
          "name": "",
          "type": "bytes32"
        },
        {
          "name": "",
          "type": "bytes16"
        }
      ],
      "name": "identityToken",
      "outputs": [
        {
          "name": "verifiedHASH",
          "type": "string"
        },
        {
          "name": "encryptedIPFSLink",
          "type": "string"
        },
        {
          "name": "validity",
          "type": "uint16"
        },
        {
          "name": "ownerAccepts",
          "type": "bool"
        }
      ],
      "payable": false,
      "stateMutability": "view",
      "type": "function"
    },
    {
      "constant": true,
      "inputs": [
        {
          "name": "",
          "type": "bytes32"
        }
      ],
      "name": "validIdentityKeys",
      "outputs": [
        {
          "name": "",
          "type": "bool"
        }
      ],
      "payable": false,
      "stateMutability": "view",
      "type": "function"
    },
    {
      "constant": true,
      "inputs": [
        {
          "name": "",
          "type": "bytes32"
        },
        {
          "name": "",
          "type": "bytes16"
        }
      ],
      "name": "tokenMetadata",
      "outputs": [
        {
          "name": "",
          "type": "string"
        }
      ],
      "payable": false,
      "stateMutability": "view",
      "type": "function"
    },
    {
      "inputs": [],
      "payable": false,
      "stateMutability": "nonpayable",
      "type": "constructor"
    },
    {
      "constant": false,
      "inputs": [
        {
          "name": "_identityKey",
          "type": "bytes32"
        }
      ],
      "name": "createIdentity",
      "outputs": [
        {
          "name": "",
          "type": "bool"
        }
      ],
      "payable": false,
      "stateMutability": "nonpayable",
      "type": "function"
    },
    {
      "constant": false,
      "inputs": [
        {
          "name": "_userID",
          "type": "bytes32"
        },
        {
          "name": "_position",
          "type": "uint16"
        },
        {
          "name": "newPublicKey",
          "type": "address"
        }
      ],
      "name": "addPublicKey",
      "outputs": [
        {
          "name": "",
          "type": "bool"
        }
      ],
      "payable": false,
      "stateMutability": "nonpayable",
      "type": "function"
    },
    {
      "constant": false,
      "inputs": [
        {
          "name": "_userID",
          "type": "bytes32"
        },
        {
          "name": "_position",
          "type": "uint16"
        },
        {
          "name": "_PGPKey",
          "type": "string"
        }
      ],
      "name": "addRawPGPKey",
      "outputs": [
        {
          "name": "",
          "type": "bool"
        }
      ],
      "payable": false,
      "stateMutability": "nonpayable",
      "type": "function"
    },
    {
      "constant": false,
      "inputs": [
        {
          "name": "_userID",
          "type": "bytes32"
        },
        {
          "name": "_position",
          "type": "uint16"
        },
        {
          "name": "_issueIDTo",
          "type": "bytes32"
        },
        {
          "name": "_verifiedHASH",
          "type": "string"
        },
        {
          "name": "_encryptedIPFSLink",
          "type": "string"
        },
        {
          "name": "_validity",
          "type": "uint16"
        },
        {
          "name": "tokenID",
          "type": "bytes16"
        }
      ],
      "name": "issueToken",
      "outputs": [
        {
          "name": "",
          "type": "bool"
        }
      ],
      "payable": false,
      "stateMutability": "nonpayable",
      "type": "function"
    },
    {
      "constant": false,
      "inputs": [
        {
          "name": "_userID",
          "type": "bytes32"
        },
        {
          "name": "_position",
          "type": "uint16"
        },
        {
          "name": "_issueIDTo",
          "type": "bytes32"
        },
        {
          "name": "_validity",
          "type": "uint16"
        },
        {
          "name": "tokenID",
          "type": "bytes16"
        }
      ],
      "name": "revokeIssuedToken",
      "outputs": [
        {
          "name": "",
          "type": "bool"
        }
      ],
      "payable": false,
      "stateMutability": "nonpayable",
      "type": "function"
    },
    {
      "constant": false,
      "inputs": [
        {
          "name": "_userID",
          "type": "bytes32"
        },
        {
          "name": "_position",
          "type": "uint16"
        },
        {
          "name": "_issuerID",
          "type": "bytes32"
        },
        {
          "name": "_certID",
          "type": "bytes16"
        }
      ],
      "name": "acceptToken",
      "outputs": [],
      "payable": false,
      "stateMutability": "nonpayable",
      "type": "function"
    },
    {
      "constant": false,
      "inputs": [
        {
          "name": "_userID",
          "type": "bytes32"
        },
        {
          "name": "_position",
          "type": "uint16"
        },
        {
          "name": "_issuerID",
          "type": "bytes32"
        },
        {
          "name": "_certID",
          "type": "bytes16"
        }
      ],
      "name": "revokeToken",
      "outputs": [],
      "payable": false,
      "stateMutability": "nonpayable",
      "type": "function"
    },
    {
      "constant": false,
      "inputs": [
        {
          "name": "_userID",
          "type": "bytes32"
        },
        {
          "name": "_position",
          "type": "uint16"
        },
        {
          "name": "_certID",
          "type": "bytes16"
        },
        {
          "name": "_metaData",
          "type": "string"
        }
      ],
      "name": "addTokenMetaData",
      "outputs": [],
      "payable": false,
      "stateMutability": "nonpayable",
      "type": "function"
    },
    {
      "constant": false,
      "inputs": [
        {
          "name": "_userID",
          "type": "bytes32"
        },
        {
          "name": "_position",
          "type": "uint16"
        },
        {
          "name": "_email",
          "type": "string"
        }
      ],
      "name": "setEmail",
      "outputs": [],
      "payable": false,
      "stateMutability": "nonpayable",
      "type": "function"
    }
  ],
  "bytecode": "0x6060604052341561000f57600080fd5b33600760006101000a81548173ffffffffffffffffffffffffffffffffffffffff021916908373ffffffffffffffffffffffffffffffffffffffff160217905550611eee8061005f6000396000f3006060604052600436106100f1576000357c0100000000000000000000000000000000000000000000000000000000900463ffffffff16806302d05d3f146100f657806316e579191461014b578063194dc95a146101de578063216b00891461023c57806328601a071461027b5780632fb30674146102e6578063373dea1814610361578063635c3dac1461040157806371d49ebc14610509578063b88bc37e14610566578063c0b52dd114610606578063d32e03ce14610688578063d4afc9c1146107d7578063d6723b0b14610816578063d93b049914610873578063e452d80f146108ea578063e47ad3e314610979575b600080fd5b341561010157600080fd5b610109610a35565b604051808273ffffffffffffffffffffffffffffffffffffffff1673ffffffffffffffffffffffffffffffffffffffff16815260200191505060405180910390f35b341561015657600080fd5b6101dc60048080356000191690602001909190803561ffff169060200190919080356fffffffffffffffffffffffffffffffff191690602001909190803590602001908201803590602001908080601f01602080910402602001604051908101604052809392919081815260200183838082843782019150505050505091905050610a5b565b005b34156101e957600080fd5b61021e600480803573ffffffffffffffffffffffffffffffffffffffff16906020019091908035906020019091905050610bae565b60405180826000191660001916815260200191505060405180910390f35b341561024757600080fd5b610261600480803560001916906020019091905050610bdf565b604051808215151515815260200191505060405180910390f35b341561028657600080fd5b6102cc60048080356000191690602001909190803561ffff1690602001909190803573ffffffffffffffffffffffffffffffffffffffff16906020019091905050610d9e565b604051808215151515815260200191505060405180910390f35b34156102f157600080fd5b610314600480803560001916906020019091908035906020019091905050610fdc565b604051808373ffffffffffffffffffffffffffffffffffffffff1673ffffffffffffffffffffffffffffffffffffffff168152602001821515151581526020019250505060405180910390f35b341561036c57600080fd5b610386600480803560001916906020019091905050611046565b6040518080602001828103825283818151815260200191508051906020019080838360005b838110156103c65780820151818401526020810190506103ab565b50505050905090810190601f1680156103f35780820380516001836020036101000a031916815260200191505b509250505060405180910390f35b341561040c57600080fd5b6104ef60048080356000191690602001909190803561ffff169060200190919080356000191690602001909190803590602001908201803590602001908080601f0160208091040260200160405190810160405280939291908181526020018383808284378201915050505050509190803590602001908201803590602001908080601f0160208091040260200160405190810160405280939291908181526020018383808284378201915050505050509190803561ffff169060200190919080356fffffffffffffffffffffffffffffffff19169060200190919050506110f6565b604051808215151515815260200191505060405180910390f35b341561051457600080fd5b61056460048080356000191690602001909190803561ffff16906020019091908035600019169060200190919080356fffffffffffffffffffffffffffffffff19169060200190919050506112fd565b005b341561057157600080fd5b61058b600480803560001916906020019091905050611470565b6040518080602001828103825283818151815260200191508051906020019080838360005b838110156105cb5780820151818401526020810190506105b0565b50505050905090810190601f1680156105f85780820380516001836020036101000a031916815260200191505b509250505060405180910390f35b341561061157600080fd5b61066e60048080356000191690602001909190803561ffff169060200190919080356000191690602001909190803561ffff169060200190919080356fffffffffffffffffffffffffffffffff1916906020019091905050611520565b604051808215151515815260200191505060405180910390f35b341561069357600080fd5b6106d6600480803560001916906020019091908035600019169060200190919080356fffffffffffffffffffffffffffffffff191690602001909190505061169a565b6040518080602001806020018561ffff1661ffff16815260200184151515158152602001838103835287818151815260200191508051906020019080838360005b83811015610732578082015181840152602081019050610717565b50505050905090810190601f16801561075f5780820380516001836020036101000a031916815260200191505b50838103825286818151815260200191508051906020019080838360005b8381101561079857808201518184015260208101905061077d565b50505050905090810190601f1680156107c55780820380516001836020036101000a031916815260200191505b50965050505050505060405180910390f35b34156107e257600080fd5b6107fc60048080356000191690602001909190505061182f565b604051808215151515815260200191505060405180910390f35b341561082157600080fd5b61087160048080356000191690602001909190803561ffff16906020019091908035600019169060200190919080356fffffffffffffffffffffffffffffffff191690602001909190505061184f565b005b341561087e57600080fd5b6108e860048080356000191690602001909190803561ffff1690602001909190803590602001908201803590602001908080601f016020809104026020016040519081016040528093929190818152602001838380828437820191505050505050919050506119c2565b005b34156108f557600080fd5b61095f60048080356000191690602001909190803561ffff1690602001909190803590602001908201803590602001908080601f01602080910402602001604051908101604052809392919081815260200183838082843782019150505050505091905050611add565b604051808215151515815260200191505060405180910390f35b341561098457600080fd5b6109ba6004808035600019169060200190919080356fffffffffffffffffffffffffffffffff1916906020019091905050611c09565b6040518080602001828103825283818151815260200191508051906020019080838360005b838110156109fa5780820151818401526020810190506109df565b50505050905090810190601f168015610a275780820380516001836020036101000a031916815260200191505b509250505060405180910390f35b600760009054906101000a900473ffffffffffffffffffffffffffffffffffffffff1681565b3373ffffffffffffffffffffffffffffffffffffffff166004600086600019166000191681526020019081526020016000208461ffff16815481101515610a9e57fe5b906000526020600020900160000160009054906101000a900473ffffffffffffffffffffffffffffffffffffffff1673ffffffffffffffffffffffffffffffffffffffff16148015610b3b5750600115156004600086600019166000191681526020019081526020016000208461ffff16815481101515610b1b57fe5b906000526020600020900160000160149054906101000a900460ff161515145b15610ba857806006600086600019166000191681526020019081526020016000206000846fffffffffffffffffffffffffffffffff19166fffffffffffffffffffffffffffffffff191681526020019081526020016000209080519060200190610ba6929190611cc6565b505b50505050565b600060205281600052604060002081815481101515610bc957fe5b9060005260206000209001600091509150505481565b600080151560036000846000191660001916815260200190815260200160002060009054906101000a900460ff1615151415610d9457600160036000846000191660001916815260200190815260200160002060006101000a81548160ff0219169083151502179055506004600083600019166000191681526020019081526020016000208054806001018281610c769190611d46565b9160005260206000209001600060408051908101604052803373ffffffffffffffffffffffffffffffffffffffff16815260200160011515815250909190915060008201518160000160006101000a81548173ffffffffffffffffffffffffffffffffffffffff021916908373ffffffffffffffffffffffffffffffffffffffff16021790555060208201518160000160146101000a81548160ff0219169083151502179055505050506000803373ffffffffffffffffffffffffffffffffffffffff1673ffffffffffffffffffffffffffffffffffffffff1681526020019081526020016000208054806001018281610d709190611d72565b91600052602060002090016000849091909150906000191690555060019050610d99565b600090505b919050565b60003373ffffffffffffffffffffffffffffffffffffffff166004600086600019166000191681526020019081526020016000208461ffff16815481101515610de357fe5b906000526020600020900160000160009054906101000a900473ffffffffffffffffffffffffffffffffffffffff1673ffffffffffffffffffffffffffffffffffffffff16148015610e805750600115156004600086600019166000191681526020019081526020016000208461ffff16815481101515610e6057fe5b906000526020600020900160000160149054906101000a900460ff161515145b15610fd0576004600085600019166000191681526020019081526020016000208054806001018281610eb29190611d46565b9160005260206000209001600060408051908101604052808673ffffffffffffffffffffffffffffffffffffffff16815260200160011515815250909190915060008201518160000160006101000a81548173ffffffffffffffffffffffffffffffffffffffff021916908373ffffffffffffffffffffffffffffffffffffffff16021790555060208201518160000160146101000a81548160ff0219169083151502179055505050506000803373ffffffffffffffffffffffffffffffffffffffff1673ffffffffffffffffffffffffffffffffffffffff1681526020019081526020016000208054806001018281610fac9190611d72565b91600052602060002090016000869091909150906000191690555060019050610fd5565b600090505b9392505050565b600460205281600052604060002081815481101515610ff757fe5b9060005260206000209001600091509150508060000160009054906101000a900473ffffffffffffffffffffffffffffffffffffffff16908060000160149054906101000a900460ff16905082565b60016020528060005260406000206000915090508054600181600116156101000203166002900480601f0160208091040260200160405190810160405280929190818152602001828054600181600116156101000203166002900480156110ee5780601f106110c3576101008083540402835291602001916110ee565b820191906000526020600020905b8154815290600101906020018083116110d157829003601f168201915b505050505081565b60003373ffffffffffffffffffffffffffffffffffffffff16600460008a600019166000191681526020019081526020016000208861ffff1681548110151561113b57fe5b906000526020600020900160000160009054906101000a900473ffffffffffffffffffffffffffffffffffffffff1673ffffffffffffffffffffffffffffffffffffffff161480156111d8575060011515600460008a600019166000191681526020019081526020016000208861ffff168154811015156111b857fe5b906000526020600020900160000160149054906101000a900460ff161515145b156112f2576080604051908101604052808681526020018581526020018461ffff1681526020016000151581525060056000886000191660001916815260200190815260200160002060008a600019166000191681526020019081526020016000206000846fffffffffffffffffffffffffffffffff19166fffffffffffffffffffffffffffffffff19168152602001908152602001600020600082015181600001908051906020019061128d929190611d9e565b5060208201518160010190805190602001906112aa929190611d9e565b5060408201518160020160006101000a81548161ffff021916908361ffff16021790555060608201518160020160026101000a81548160ff0219169083151502179055509050505b979650505050505050565b3373ffffffffffffffffffffffffffffffffffffffff166004600086600019166000191681526020019081526020016000208461ffff1681548110151561134057fe5b906000526020600020900160000160009054906101000a900473ffffffffffffffffffffffffffffffffffffffff1673ffffffffffffffffffffffffffffffffffffffff161480156113dd5750600115156004600086600019166000191681526020019081526020016000208461ffff168154811015156113bd57fe5b906000526020600020900160000160149054906101000a900460ff161515145b1561146a576001600560008660001916600019168152602001908152602001600020600084600019166000191681526020019081526020016000206000836fffffffffffffffffffffffffffffffff19166fffffffffffffffffffffffffffffffff1916815260200190815260200160002060020160026101000a81548160ff0219169083151502179055505b50505050565b60026020528060005260406000206000915090508054600181600116156101000203166002900480601f0160208091040260200160405190810160405280929190818152602001828054600181600116156101000203166002900480156115185780601f106114ed57610100808354040283529160200191611518565b820191906000526020600020905b8154815290600101906020018083116114fb57829003601f168201915b505050505081565b60003373ffffffffffffffffffffffffffffffffffffffff166004600088600019166000191681526020019081526020016000208661ffff1681548110151561156557fe5b906000526020600020900160000160009054906101000a900473ffffffffffffffffffffffffffffffffffffffff1673ffffffffffffffffffffffffffffffffffffffff161480156116025750600115156004600088600019166000191681526020019081526020016000208661ffff168154811015156115e257fe5b906000526020600020900160000160149054906101000a900460ff161515145b156116915782600560008660001916600019168152602001908152602001600020600088600019166000191681526020019081526020016000206000846fffffffffffffffffffffffffffffffff19166fffffffffffffffffffffffffffffffff1916815260200190815260200160002060020160006101000a81548161ffff021916908361ffff1602179055505b95945050505050565b60056020528260005260406000206020528160005260406000206020528060005260406000206000925092505050806000018054600181600116156101000203166002900480601f0160208091040260200160405190810160405280929190818152602001828054600181600116156101000203166002900480156117605780601f1061173557610100808354040283529160200191611760565b820191906000526020600020905b81548152906001019060200180831161174357829003601f168201915b505050505090806001018054600181600116156101000203166002900480601f0160208091040260200160405190810160405280929190818152602001828054600181600116156101000203166002900480156117fe5780601f106117d3576101008083540402835291602001916117fe565b820191906000526020600020905b8154815290600101906020018083116117e157829003601f168201915b5050505050908060020160009054906101000a900461ffff16908060020160029054906101000a900460ff16905084565b60036020528060005260406000206000915054906101000a900460ff1681565b3373ffffffffffffffffffffffffffffffffffffffff166004600086600019166000191681526020019081526020016000208461ffff1681548110151561189257fe5b906000526020600020900160000160009054906101000a900473ffffffffffffffffffffffffffffffffffffffff1673ffffffffffffffffffffffffffffffffffffffff1614801561192f5750600115156004600086600019166000191681526020019081526020016000208461ffff1681548110151561190f57fe5b906000526020600020900160000160149054906101000a900460ff161515145b156119bc576000600560008660001916600019168152602001908152602001600020600084600019166000191681526020019081526020016000206000836fffffffffffffffffffffffffffffffff19166fffffffffffffffffffffffffffffffff1916815260200190815260200160002060020160026101000a81548160ff0219169083151502179055505b50505050565b3373ffffffffffffffffffffffffffffffffffffffff166004600085600019166000191681526020019081526020016000208361ffff16815481101515611a0557fe5b906000526020600020900160000160009054906101000a900473ffffffffffffffffffffffffffffffffffffffff1673ffffffffffffffffffffffffffffffffffffffff16148015611aa25750600115156004600085600019166000191681526020019081526020016000208361ffff16815481101515611a8257fe5b906000526020600020900160000160149054906101000a900460ff161515145b15611ad857806001600085600019166000191681526020019081526020016000209080519060200190611ad6929190611cc6565b505b505050565b60003373ffffffffffffffffffffffffffffffffffffffff166004600086600019166000191681526020019081526020016000208461ffff16815481101515611b2257fe5b906000526020600020900160000160009054906101000a900473ffffffffffffffffffffffffffffffffffffffff1673ffffffffffffffffffffffffffffffffffffffff16148015611bbf5750600115156004600086600019166000191681526020019081526020016000208461ffff16815481101515611b9f57fe5b906000526020600020900160000160149054906101000a900460ff161515145b15611bfd57816002600086600019166000191681526020019081526020016000209080519060200190611bf3929190611cc6565b5060019050611c02565b600090505b9392505050565b6006602052816000526040600020602052806000526040600020600091509150508054600181600116156101000203166002900480601f016020809104026020016040519081016040528092919081815260200182805460018160011615610100020316600290048015611cbe5780601f10611c9357610100808354040283529160200191611cbe565b820191906000526020600020905b815481529060010190602001808311611ca157829003601f168201915b505050505081565b828054600181600116156101000203166002900490600052602060002090601f016020900481019282601f10611d0757805160ff1916838001178555611d35565b82800160010185558215611d35579182015b82811115611d34578251825591602001919060010190611d19565b5b509050611d429190611e1e565b5090565b815481835581811511611d6d57818360005260206000209182019101611d6c9190611e43565b5b505050565b815481835581811511611d9957818360005260206000209182019101611d989190611e9d565b5b505050565b828054600181600116156101000203166002900490600052602060002090601f016020900481019282601f10611ddf57805160ff1916838001178555611e0d565b82800160010185558215611e0d579182015b82811115611e0c578251825591602001919060010190611df1565b5b509050611e1a9190611e1e565b5090565b611e4091905b80821115611e3c576000816000905550600101611e24565b5090565b90565b611e9a91905b80821115611e9657600080820160006101000a81549073ffffffffffffffffffffffffffffffffffffffff02191690556000820160146101000a81549060ff021916905550600101611e49565b5090565b90565b611ebf91905b80821115611ebb576000816000905550600101611ea3565b5090565b905600a165627a7a72305820e87626dbd527b5385f0a2b5821cd4cf9794f813151833ace293e2d86ea4600e80029",
  "source": "pragma solidity ^0.4.16;\r\n\r\ncontract Identity {\r\n    //Datastructures\r\n\r\n    /*This is a credential that can be sent to an Identity key\r\n        verifiedHASH is hash of a piece of data which is created by the issuer\r\n        encryptedIPFSLink is for when the file is encrypted with the users PGP key that is on the platform\r\n        The user can get the file which generates the verified hash and use that as ID which can be verified in this smart contact\r\n        validity is for the state of the token, it can be used to revoke the credential as well\r\n        ownerAccepts shows the owner agrees with what the credential repersents\r\n        */\r\n    struct identityTokenStruct {\r\n        string verifiedHASH;\r\n        string encryptedIPFSLink;\r\n        uint16 validity;\r\n        bool ownerAccepts;\r\n    }\r\n    /*\r\n    This struct is for adding and removing public keys that can control the identity\r\n    */\r\n    struct identityAddress {\r\n        address accountAddress;\r\n        bool valid;\r\n    }\r\n    /*\r\n    //Not used in current implementation\r\n    struct userInfoStruct {\r\n        string rawPGPKey;\r\n        string ipfsPGP;\r\n    }\r\n    //mapping (bytes32 => userInfoStruct) public userInfo; \r\n    */\r\n    mapping (address => bytes32[]) public publicKeyToIdentity;\r\n    mapping (bytes32 => string) public email;\r\n    mapping (bytes32 => string) public PGPKey;\r\n    mapping (bytes32 => bool) public validIdentityKeys;\r\n    mapping (bytes32 => identityAddress[]) public identities;\r\n\r\n    //User, Issuer, Certification ID\r\n    mapping (bytes32 => mapping(bytes32 => mapping(bytes16 => identityTokenStruct))) public identityToken;\r\n\r\n    //This stuct maps to metadata or IPFS hash that explains what the token is about for people who do not know what the token is\r\n    mapping (bytes32 => mapping(bytes16 => string)) public tokenMetadata;\r\n\r\n    //Constructor\r\n        //Curently I have nothing for it to do\r\n        //This is a decentralized identity platform, so the creator has no authory anyways\r\n    address public creator;\r\n    function Identity() public {\r\n        creator = msg.sender;\r\n    }\r\n\r\n    \r\n    function createIdentity (bytes32 _identityKey) public returns (bool) {\r\n        if(validIdentityKeys[_identityKey] == false){\r\n            validIdentityKeys[_identityKey] = true;\r\n            identities[_identityKey].push(identityAddress(msg.sender, true));\r\n            publicKeyToIdentity[msg.sender].push(_identityKey);\r\n            return(true);\r\n        }\r\n        else{\r\n            return(false);\r\n        }\r\n    }\r\n    function addPublicKey (bytes32 _userID, uint16 _position, address newPublicKey) public returns(bool) {\r\n        if(identities[_userID][_position].accountAddress == msg.sender && identities[_userID][_position].valid == true){\r\n            identities[_userID].push(identityAddress(newPublicKey, true));\r\n            publicKeyToIdentity[msg.sender].push(_userID);\r\n            return(true);\r\n        }\r\n        else {\r\n            return(false);\r\n        }\r\n    }\r\n    function addRawPGPKey (bytes32 _userID, uint16 _position, string _PGPKey) public returns (bool) {\r\n        if(identities[_userID][_position].accountAddress == msg.sender && identities[_userID][_position].valid == true){\r\n            PGPKey[_userID] = _PGPKey;\r\n            return (true);\r\n        }\r\n        else {\r\n            return(false);\r\n        }\r\n    }\r\n    function issueToken (bytes32 _userID, uint16 _position, bytes32 _issueIDTo, string _verifiedHASH, string _encryptedIPFSLink, uint16 _validity, bytes16 tokenID) public returns (bool) {\r\n        if(identities[_userID][_position].accountAddress == msg.sender && identities[_userID][_position].valid == true){\r\n            identityToken[_issueIDTo][_userID][tokenID] = identityTokenStruct(_verifiedHASH, _encryptedIPFSLink, _validity, false);\r\n        }\r\n    }\r\n    function revokeIssuedToken (bytes32 _userID, uint16 _position, bytes32 _issueIDTo, uint16 _validity, bytes16 tokenID) public returns (bool) {//bytes32 _userIDTo, \r\n        if(identities[_userID][_position].accountAddress == msg.sender && identities[_userID][_position].valid == true){\r\n            identityToken[_issueIDTo][_userID][tokenID].validity = _validity;\r\n        }\r\n    }\r\n    function acceptToken (bytes32 _userID, uint16 _position, bytes32 _issuerID, bytes16 _certID) public {\r\n        if(identities[_userID][_position].accountAddress == msg.sender && identities[_userID][_position].valid == true){\r\n            identityToken[_userID][_issuerID][_certID].ownerAccepts = true;\r\n        }\r\n    }\r\n    function revokeToken (bytes32 _userID, uint16 _position, bytes32 _issuerID, bytes16 _certID) public {\r\n        if(identities[_userID][_position].accountAddress == msg.sender && identities[_userID][_position].valid == true){\r\n            identityToken[_userID][_issuerID][_certID].ownerAccepts = false;\r\n        }\r\n\r\n    }\r\n    function addTokenMetaData (bytes32 _userID, uint16 _position, bytes16 _certID, string _metaData) public {\r\n        if(identities[_userID][_position].accountAddress == msg.sender && identities[_userID][_position].valid == true){\r\n            tokenMetadata[_userID][_certID] = _metaData;\r\n        }\r\n    }\r\n\r\n    function setEmail (bytes32 _userID, uint16 _position, string _email) public {\r\n        if(identities[_userID][_position].accountAddress == msg.sender && identities[_userID][_position].valid == true){\r\n            email[_userID] = _email;\r\n        }\r\n    }\r\n    /*\r\n    function deletePublicKey () public {\r\n        //How do we remove keys from the middle of the array\r\n    }\r\n    function addPGPKey (string _key) public {\r\n        //Do his at the end\r\n    }\r\n    function removePGPKey () public {}\r\n    function selectCurrentPGPKey () public {}\r\n    */\r\n\r\n}",
  "sourcePath": "/home/paulx230/Projects/UIP-Universal-Identity-Platform/truffleWorkspace/contracts/Identity.sol",
  "compiler": {
    "name": "solc",
    "version": "0.4.21+commit.dfe3193c.Emscripten.clang"
  },
  "schemaVersion": "2.0.0",
  "updatedAt": "2018-04-23T14:31:37.122Z"
}